{
  "_format": "hh-sol-artifact-1",
  "contractName": "PostoReserva",
  "sourceName": "contracts/PostoReserva.sol",
  "abi": [
    {
      "anonymous": false,
      "inputs": [
        {
          "indexed": false,
          "internalType": "address",
          "name": "cliente",
          "type": "address"
        },
        {
          "indexed": false,
          "internalType": "uint256",
          "name": "id",
          "type": "uint256"
        }
      ],
      "name": "NovoBloco",
      "type": "event"
    },
    {
      "anonymous": false,
      "inputs": [
        {
          "indexed": false,
          "internalType": "uint256",
          "name": "idBloco",
          "type": "uint256"
        },
        {
          "indexed": false,
          "internalType": "address",
          "name": "servidor",
          "type": "address"
        },
        {
          "indexed": false,
          "internalType": "bool",
          "name": "sucesso",
          "type": "bool"
        },
        {
          "indexed": false,
          "internalType": "string",
          "name": "motivo",
          "type": "string"
        }
      ],
      "name": "ReservaRespondida",
      "type": "event"
    },
    {
      "inputs": [
        {
          "internalType": "uint256",
          "name": "id",
          "type": "uint256"
        }
      ],
      "name": "getBloco",
      "outputs": [
        {
          "components": [
            {
              "internalType": "address",
              "name": "cliente",
              "type": "address"
            },
            {
              "internalType": "int256",
              "name": "origemX",
              "type": "int256"
            },
            {
              "internalType": "int256",
              "name": "origemY",
              "type": "int256"
            },
            {
              "internalType": "int256",
              "name": "destinoX",
              "type": "int256"
            },
            {
              "internalType": "int256",
              "name": "destinoY",
              "type": "int256"
            },
            {
              "internalType": "uint256",
              "name": "bateria",
              "type": "uint256"
            },
            {
              "internalType": "uint256",
              "name": "timestamp",
              "type": "uint256"
            }
          ],
          "internalType": "struct PostoReserva.Bloco",
          "name": "",
          "type": "tuple"
        }
      ],
      "stateMutability": "view",
      "type": "function"
    },
    {
      "inputs": [
        {
          "internalType": "uint256",
          "name": "idBloco",
          "type": "uint256"
        }
      ],
      "name": "getRespostas",
      "outputs": [
        {
          "components": [
            {
              "internalType": "address",
              "name": "servidor",
              "type": "address"
            },
            {
              "internalType": "bool",
              "name": "sucesso",
              "type": "bool"
            },
            {
              "internalType": "string",
              "name": "motivo",
              "type": "string"
            },
            {
              "internalType": "uint256",
              "name": "timestamp",
              "type": "uint256"
            }
          ],
          "internalType": "struct PostoReserva.Resposta[]",
          "name": "",
          "type": "tuple[]"
        }
      ],
      "stateMutability": "view",
      "type": "function"
    },
    {
      "inputs": [
        {
          "internalType": "uint256",
          "name": "idBloco",
          "type": "uint256"
        },
        {
          "internalType": "bool",
          "name": "sucesso",
          "type": "bool"
        },
        {
          "internalType": "string",
          "name": "motivo",
          "type": "string"
        }
      ],
      "name": "registrarResposta",
      "outputs": [],
      "stateMutability": "nonpayable",
      "type": "function"
    },
    {
      "inputs": [
        {
          "internalType": "uint256",
          "name": "",
          "type": "uint256"
        }
      ],
      "name": "registros",
      "outputs": [
        {
          "internalType": "address",
          "name": "cliente",
          "type": "address"
        },
        {
          "internalType": "int256",
          "name": "origemX",
          "type": "int256"
        },
        {
          "internalType": "int256",
          "name": "origemY",
          "type": "int256"
        },
        {
          "internalType": "int256",
          "name": "destinoX",
          "type": "int256"
        },
        {
          "internalType": "int256",
          "name": "destinoY",
          "type": "int256"
        },
        {
          "internalType": "uint256",
          "name": "bateria",
          "type": "uint256"
        },
        {
          "internalType": "uint256",
          "name": "timestamp",
          "type": "uint256"
        }
      ],
      "stateMutability": "view",
      "type": "function"
    },
    {
      "inputs": [],
      "name": "registrosLength",
      "outputs": [
        {
          "internalType": "uint256",
          "name": "",
          "type": "uint256"
        }
      ],
      "stateMutability": "view",
      "type": "function"
    },
    {
      "inputs": [
        {
          "internalType": "uint256",
          "name": "",
          "type": "uint256"
        },
        {
          "internalType": "uint256",
          "name": "",
          "type": "uint256"
        }
      ],
      "name": "respostas",
      "outputs": [
        {
          "internalType": "address",
          "name": "servidor",
          "type": "address"
        },
        {
          "internalType": "bool",
          "name": "sucesso",
          "type": "bool"
        },
        {
          "internalType": "string",
          "name": "motivo",
          "type": "string"
        },
        {
          "internalType": "uint256",
          "name": "timestamp",
          "type": "uint256"
        }
      ],
      "stateMutability": "view",
      "type": "function"
    },
    {
      "inputs": [
        {
          "internalType": "int256",
          "name": "origemX",
          "type": "int256"
        },
        {
          "internalType": "int256",
          "name": "origemY",
          "type": "int256"
        },
        {
          "internalType": "int256",
          "name": "destinoX",
          "type": "int256"
        },
        {
          "internalType": "int256",
          "name": "destinoY",
          "type": "int256"
        },
        {
          "internalType": "uint256",
          "name": "bateria",
          "type": "uint256"
        }
      ],
      "name": "solicitarRegistro",
      "outputs": [
        {
          "internalType": "uint256",
          "name": "",
          "type": "uint256"
        }
      ],
      "stateMutability": "nonpayable",
      "type": "function"
    }
  ],
  "bytecode": "0x6080604052348015600f57600080fd5b506114b18061001f6000396000f3fe608060405234801561001057600080fd5b506004361061007d5760003560e01c80639b3e53db1161005b5780639b3e53db14610100578063c65fa7be1461011c578063d6c841bf1461014c578063ded39a5d1461017f5761007d565b806336fc2381146100825780633c75085b146100b25780634a80fdde146100e2575b600080fd5b61009c60048036038101906100979190610944565b6101b5565b6040516100a99190610a68565b60405180910390f35b6100cc60048036038101906100c79190610aaf565b610283565b6040516100d99190610b39565b60405180910390f35b6100ea6103e4565b6040516100f79190610b39565b60405180910390f35b61011a60048036038101906101159190610bf1565b6103f0565b005b61013660048036038101906101319190610944565b6105be565b6040516101439190610e29565b60405180910390f35b61016660048036038101906101619190610e4b565b61073d565b6040516101769493929190610ef3565b60405180910390f35b61019960048036038101906101949190610944565b61083f565b6040516101ac9796959493929190610f4e565b60405180910390f35b6101bd6108b1565b600082815481106101d1576101d0610fbd565b5b90600052602060002090600702016040518060e00160405290816000820160009054906101000a900473ffffffffffffffffffffffffffffffffffffffff1673ffffffffffffffffffffffffffffffffffffffff1673ffffffffffffffffffffffffffffffffffffffff16815260200160018201548152602001600282015481526020016003820154815260200160048201548152602001600582015481526020016006820154815250509050919050565b6000806040518060e001604052803373ffffffffffffffffffffffffffffffffffffffff16815260200188815260200187815260200186815260200185815260200184815260200142815250908060018154018082558091505060019003906000526020600020906007020160009091909190915060008201518160000160006101000a81548173ffffffffffffffffffffffffffffffffffffffff021916908373ffffffffffffffffffffffffffffffffffffffff1602179055506020820151816001015560408201518160020155606082015181600301556080820151816004015560a0820151816005015560c0820151816006015550507f68fddfc9162517cd8042b7524a9f9d013fe701bb699946e485be1f593f4f9f8a3360016000805490506103b1919061101b565b6040516103bf92919061104f565b60405180910390a160016000805490506103d9919061101b565b905095945050505050565b60008080549050905090565b6000805490508410610437576040517f08c379a000000000000000000000000000000000000000000000000000000000815260040161042e906110c4565b60405180910390fd5b6001600085815260200190815260200160002060405180608001604052803373ffffffffffffffffffffffffffffffffffffffff168152602001851515815260200184848080601f016020809104026020016040519081016040528093929190818152602001838380828437600081840152601f19601f82011690508083019250505050505050815260200142815250908060018154018082558091505060019003906000526020600020906003020160009091909190915060008201518160000160006101000a81548173ffffffffffffffffffffffffffffffffffffffff021916908373ffffffffffffffffffffffffffffffffffffffff16021790555060208201518160000160146101000a81548160ff021916908315150217905550604082015181600101908161056c919061131f565b506060820151816002015550507f1d13b79b320c3271f215da3c192fd1b4ee13a6f23953b7d68c2e5f5600c26cf084338585856040516105b095949392919061142d565b60405180910390a150505050565b606060016000838152602001908152602001600020805480602002602001604051908101604052809291908181526020016000905b8282101561073257838290600052602060002090600302016040518060800160405290816000820160009054906101000a900473ffffffffffffffffffffffffffffffffffffffff1673ffffffffffffffffffffffffffffffffffffffff1673ffffffffffffffffffffffffffffffffffffffff1681526020016000820160149054906101000a900460ff1615151515815260200160018201805461069790611142565b80601f01602080910402602001604051908101604052809291908181526020018280546106c390611142565b80156107105780601f106106e557610100808354040283529160200191610710565b820191906000526020600020905b8154815290600101906020018083116106f357829003601f168201915b50505050508152602001600282015481525050815260200190600101906105f3565b505050509050919050565b6001602052816000526040600020818154811061075957600080fd5b9060005260206000209060030201600091509150508060000160009054906101000a900473ffffffffffffffffffffffffffffffffffffffff16908060000160149054906101000a900460ff16908060010180546107b690611142565b80601f01602080910402602001604051908101604052809291908181526020018280546107e290611142565b801561082f5780601f106108045761010080835404028352916020019161082f565b820191906000526020600020905b81548152906001019060200180831161081257829003601f168201915b5050505050908060020154905084565b6000818154811061084f57600080fd5b90600052602060002090600702016000915090508060000160009054906101000a900473ffffffffffffffffffffffffffffffffffffffff16908060010154908060020154908060030154908060040154908060050154908060060154905087565b6040518060e00160405280600073ffffffffffffffffffffffffffffffffffffffff1681526020016000815260200160008152602001600081526020016000815260200160008152602001600081525090565b600080fd5b600080fd5b6000819050919050565b6109218161090e565b811461092c57600080fd5b50565b60008135905061093e81610918565b92915050565b60006020828403121561095a57610959610904565b5b60006109688482850161092f565b91505092915050565b600073ffffffffffffffffffffffffffffffffffffffff82169050919050565b600061099c82610971565b9050919050565b6109ac81610991565b82525050565b6000819050919050565b6109c5816109b2565b82525050565b6109d48161090e565b82525050565b60e0820160008201516109f060008501826109a3565b506020820151610a0360208501826109bc565b506040820151610a1660408501826109bc565b506060820151610a2960608501826109bc565b506080820151610a3c60808501826109bc565b5060a0820151610a4f60a08501826109cb565b5060c0820151610a6260c08501826109cb565b50505050565b600060e082019050610a7d60008301846109da565b92915050565b610a8c816109b2565b8114610a9757600080fd5b50565b600081359050610aa981610a83565b92915050565b600080600080600060a08688031215610acb57610aca610904565b5b6000610ad988828901610a9a565b9550506020610aea88828901610a9a565b9450506040610afb88828901610a9a565b9350506060610b0c88828901610a9a565b9250506080610b1d8882890161092f565b9150509295509295909350565b610b338161090e565b82525050565b6000602082019050610b4e6000830184610b2a565b92915050565b60008115159050919050565b610b6981610b54565b8114610b7457600080fd5b50565b600081359050610b8681610b60565b92915050565b600080fd5b600080fd5b600080fd5b60008083601f840112610bb157610bb0610b8c565b5b8235905067ffffffffffffffff811115610bce57610bcd610b91565b5b602083019150836001820283011115610bea57610be9610b96565b5b9250929050565b60008060008060608587031215610c0b57610c0a610904565b5b6000610c198782880161092f565b9450506020610c2a87828801610b77565b935050604085013567ffffffffffffffff811115610c4b57610c4a610909565b5b610c5787828801610b9b565b925092505092959194509250565b600081519050919050565b600082825260208201905092915050565b6000819050602082019050919050565b610c9a81610b54565b82525050565b600081519050919050565b600082825260208201905092915050565b60005b83811015610cda578082015181840152602081019050610cbf565b60008484015250505050565b6000601f19601f8301169050919050565b6000610d0282610ca0565b610d0c8185610cab565b9350610d1c818560208601610cbc565b610d2581610ce6565b840191505092915050565b6000608083016000830151610d4860008601826109a3565b506020830151610d5b6020860182610c91565b5060408301518482036040860152610d738282610cf7565b9150506060830151610d8860608601826109cb565b508091505092915050565b6000610d9f8383610d30565b905092915050565b6000602082019050919050565b6000610dbf82610c65565b610dc98185610c70565b935083602082028501610ddb85610c81565b8060005b85811015610e175784840389528151610df88582610d93565b9450610e0383610da7565b925060208a01995050600181019050610ddf565b50829750879550505050505092915050565b60006020820190508181036000830152610e438184610db4565b905092915050565b60008060408385031215610e6257610e61610904565b5b6000610e708582860161092f565b9250506020610e818582860161092f565b9150509250929050565b610e9481610991565b82525050565b610ea381610b54565b82525050565b600082825260208201905092915050565b6000610ec582610ca0565b610ecf8185610ea9565b9350610edf818560208601610cbc565b610ee881610ce6565b840191505092915050565b6000608082019050610f086000830187610e8b565b610f156020830186610e9a565b8181036040830152610f278185610eba565b9050610f366060830184610b2a565b95945050505050565b610f48816109b2565b82525050565b600060e082019050610f63600083018a610e8b565b610f706020830189610f3f565b610f7d6040830188610f3f565b610f8a6060830187610f3f565b610f976080830186610f3f565b610fa460a0830185610b2a565b610fb160c0830184610b2a565b98975050505050505050565b7f4e487b7100000000000000000000000000000000000000000000000000000000600052603260045260246000fd5b7f4e487b7100000000000000000000000000000000000000000000000000000000600052601160045260246000fd5b60006110268261090e565b91506110318361090e565b925082820390508181111561104957611048610fec565b5b92915050565b60006040820190506110646000830185610e8b565b6110716020830184610b2a565b9392505050565b7f494420646f20626c6f636f20696e76616c69646f000000000000000000000000600082015250565b60006110ae601483610ea9565b91506110b982611078565b602082019050919050565b600060208201905081810360008301526110dd816110a1565b9050919050565b7f4e487b7100000000000000000000000000000000000000000000000000000000600052604160045260246000fd5b7f4e487b7100000000000000000000000000000000000000000000000000000000600052602260045260246000fd5b6000600282049050600182168061115a57607f821691505b60208210810361116d5761116c611113565b5b50919050565b60008190508160005260206000209050919050565b60006020601f8301049050919050565b600082821b905092915050565b6000600883026111d57fffffffffffffffffffffffffffffffffffffffffffffffffffffffffffffffff82611198565b6111df8683611198565b95508019841693508086168417925050509392505050565b6000819050919050565b600061121c6112176112128461090e565b6111f7565b61090e565b9050919050565b6000819050919050565b61123683611201565b61124a61124282611223565b8484546111a5565b825550505050565b600090565b61125f611252565b61126a81848461122d565b505050565b5b8181101561128e57611283600082611257565b600181019050611270565b5050565b601f8211156112d3576112a481611173565b6112ad84611188565b810160208510156112bc578190505b6112d06112c885611188565b83018261126f565b50505b505050565b600082821c905092915050565b60006112f6600019846008026112d8565b1980831691505092915050565b600061130f83836112e5565b9150826002028217905092915050565b61132882610ca0565b67ffffffffffffffff811115611341576113406110e4565b5b61134b8254611142565b611356828285611292565b600060209050601f8311600181146113895760008415611377578287015190505b6113818582611303565b8655506113e9565b601f19841661139786611173565b60005b828110156113bf5784890151825560018201915060208501945060208101905061139a565b868310156113dc57848901516113d8601f8916826112e5565b8355505b6001600288020188555050505b505050505050565b82818337600083830152505050565b600061140c8385610ea9565b93506114198385846113f1565b61142283610ce6565b840190509392505050565b60006080820190506114426000830188610b2a565b61144f6020830187610e8b565b61145c6040830186610e9a565b818103606083015261146f818486611400565b9050969550505050505056fea2646970667358221220590786ec82f711e63fdb7ebd72eac4d330b5ef7afa9a170e97612f339e72e4ea64736f6c634300081c0033",
  "linkReferences": {},
  "deployedLinkReferences": {}
}